:400000000080002011000000DD080000DD08000010B500F06BFCC04610B512221E4B1A60302001F0EBFF1D4A1D4B1A60BC2292011C4B1A601C4B1D4A1A60FE2212021C49A0
:400040000A601C4919601C490A601C4A1A60882189011B4A11601B4A1A60802212061A4B1A608022D202194B1A604322184B1A60033A184B1A600132174B1A600132174BB4
:400080001A601749082001F003FF082001F0E4FE0022144B1A6010BD300010400600008004010B400C0301400000014043FF00800003014040FF00800403014041FF0080D4
:4000C0000803014042FF008008010B4000010B402C0101401C0101401801014010010140652400000C020B4010B572B600240FE035486200131959000B00411889881A5AAC
:40010000C31858880004104300F0AEFB0134E4B2012CEDD92C4801000C31343000F08AFBEE221202294B1A60294A2A4B1A6099231B04294A13608021C904284A1160284AD3
:400140001360284A1360284A13608A21C903274A1160274A136027490B783C22934314221343DBB20B70244A117816230B43DBB21370224A224B1A60224A234B1A603022C3
:40018000224B1A60224A234B1A607822224B1A60DB229202214B1A604422214B1A60223A204B1A60204A214B1A600222204B1A60013A204B1A6002321F4B1A60FFF72CFFCD
:4001C00000F078FB10BDC046983F000000030240990030000005024000500F4008500F4020500F4040500F4050500F4058500F4070500F4001700F4000700F406D0B0000CD
:4002000008000440B66D1B000802044000030440806D03000803044000040440080404401804044000050440310003000805044018050440000704401807044010B5064C74
:400240002378002B07D1054B002B02D0044800E000BF0123237010BD2804002000000000AC390000084B10B5002B03D00749084800E000BF07480368002B00D110BD064BCA
:40028000002BFBD09847F9E7000000002C040020AC390000C00000200000000062B6704710B50349034802F0D1FFFFF7F7FF10BDC40000208C05002072B67047034B58684C
:4002C000C005431E9841C0B27047C04600ED00E000228B5E002B02D08E2B04D007E08E230B80002300E00123002BF8D103E000230B80002000E001207047C046C368002274
:400300001A7000207047C046002070474368612908D8054A4900885C587451184A789A74002000E0FF207047D039000070B58469C569144B9B78012B23D1237C002B0ED090
:40034000002323740121686803F04AF90021A86803F046F9617C286803F042F90DE0012323740021686803F03BF90121A86803F037F9A17C286803F033F90521200002F084
:4003800099FC70BD300A002010B504004368586902F00CFDE36801221A70002010BDC04610B5040080694423E25C0273E35C4373052102F07FFC23696361054B2361054940
:4003C000200002F017FD01224523E25410BDC0462D030000D102000070B504000369436100250561816A02F029FD4523E55470BDC36800221A7000207047C0460020704720
:4004000070B544688568286803F0DAF82070686803F0D6F84000237818182070A86803F0CFF88000237818182070E86803F0C8F8C00023781818C0B22070014B185C70BDCB
:40044000A83A000070B5050084680021206803F097F80021606803F093F80021A06803F08FF8E068002103F08BF8EB6801221A70002070BD00228B5E002B02D0252B04D0F7
:4004800007E025230B80002300E00123002BF8D103E000230B80002000E001207047C04610B52D4B9B780B3BDAB2112A52D893002A4AD3589F46002300220521012002F0DC
:4004C000C9FC47E0002300220821012002F0C2FC40E0002300220721022002F0BBFC39E0002300220A21022002F0B4FC32E0002300220521012002F0ADFC00230022072186
:40050000022002F0A7FC25E0002300220821012002F0A0FC002300220A21022002F09AFC18E0002300220521012002F093FC002300220721022002F08DFC0BE00023002289
:400540000821012002F086FC002300220A21022002F080FC10BDC046300A0020C83A0000F8B504008569C76903694361114B0361114902F03FFC01264523E65438680021DE
:4005800002F0FEFF0021A86B02F0FAFF0021286C02F0F6FF0021E86B02F0F2FF1E21E86B03F01EF828001030044902F083FB3423EE54F8BDA104000075040000FC0800000A
:4005C00070B504000369436100250561816A02F035FC4523E55470BD00228B5E002B02D02A2B04D007E02A230B80002300E00123002BF8D103E000230B80002000E001209E
:400600007047C04670B504008569C66903694361084B0361084902F0EDFB01224523E2543069002102F0ACFF28001030034902F041FB70BD85060000D9050000FC08000031
:4006400070B504000369436100250561816A02F0F5FB4523E55470BD10B58369C069002A05D001228A40196B0A431A6304E001228A40196B91431963196B006902F0B0FFD4
:4006800010BDC04610B5084B9B78072B02D00A2B05D008E001220021FFF7DEFF03E000220021FFF7D9FF10BD300A002000228B5E002B02D02A2B04D007E02A230B80002301
:4006C00000E00123002BF8D103E000230B80002000E001207047C04670B504008569C66903694361084B0361084902F083FB01224523E2543069002102F042FF28001030AF
:40070000034902F0D7FA70BD59070000AD060000FC08000070B504000369436100250561816A02F08BFB4523E55470BD10B58369C069002A05D001228A40196B0A431A635D
:4007400004E001228A40196B91431963196B006902F046FF10BDC04610B5084B9B78052B02D0082B05D008E001220021FFF7DEFF03E000220021FFF7D9FF10BD300A00208E
:4007800010B500F01FF8002010BDC04610B501F08FFD0249002001F09BFD10BDE52C000010B5082001F04EFE10BDC04610B5012001F0E2FD10BDC04610B5012001F0FAFD12
:4007C00010BDC04610B59620C00001F073FBFFF767FD02F059FB144C0021200002F0D0FE20001030002102F0CBFE20002030002102F0C6FE20003030002102F0C1FE0B4C5F
:40080000200002F0D3FA2000483002F0CFFA084C2000103002F0CAFA2000583002F0C6FA02F050FB10BDC046D83B0000CC0000204C010020F0B50025002711E0BB00C6588B
:40084000F3B2FF22964308E06A008A181478A419527822700135013BDBB2002BF4D10137072FEBD9F0BDC04610B50A00002103F094F810BD0C4B1B68002803D080221206A1
:40088000134301E05B005B08074A1360074B1B68002803D080229204134301E0044A1340024A13607047C04680033A4008010B40FFFFFFFD10B50323054A1360054A136069
:4008C0000022054B1A600120FFF7D4FF10BDC0463000304030003140000E3F4010B503F027F803680C2B00D1FEE7FEE770B50F4E0F4D13E029686B68AC68002202E001C956
:4009000001C30432A242FAD1E868002202E0002102C304328242FAD11035013E002EE9D103F00CF8FFF72CFFFEE7C046010000003042000010B50E4A136801218B43136032
:4009400000230AE0032B03D89A000A49505800E009489900094A885001332F2BF2D9FFF7C3FB034A116801230B43136010BDC0460000104000000000DD08000000000020F7
:4009800010B5084B1B78002B06D100F049F900F07FF90122034B1A7000F04AF800F090FC10BDC046B804002010B5FFF7E9FF041E02D100F0DBFB0400002C02D100F008FB44
:4009C0000400002C03D100F0C5FA0028FBD100F011FA00F0A9F9200010BDC0460022024B1A7000207047C046B804002070B50E4E0024002513E06B0904339B000B4A9B58D3
:400A00001F222A40D340DB0707D5300000F062F804003100280000F0D7F820360135022DE9D9200070BDC04624400000A409002070B5002309E012491A1D9200881800248A
:400A400044600120404250500133002BF3D00D4C032310E06668A27E094B5B1900211976012A06D12069002803D0F179228B02F094FF20342B005D1E002BEBD170BDC04662
:400A8000A40900202440000010B582B0040008001300628869460A80228A01F0FDFE6B461B8863806B469B7823716B46DB7863716B461B79A37102B010BDC04630B50B8877
:400AC0004A889C1A0025CD800079844200DDCC8030BDC046F0B55F4656464D46E0B482B08246837E062B02D10122934601E0002293465246D268914652469468566800932F
:400B0000D76900250023019321E0009A2100484600F09CF9318A20883A0001F061FF2A0039003000FFF7B0FF0C37009A2100300000F09AF9019021003000FFF7BFFF0A341F
:400B40005B46002B02D106339C46E144013553461B8B9D42D9D3019802B01CBC91469A46A346F0BDF0B50A8B8D684F680B69012125E00C00044003D17E88BA79B21802E09C
:400B80007A88BE79921BEE88B24201D3002200E00A00A24202D01E78013E1E70A24202D01C78002C07D188431043002A01D1FA7900E001221A7049000A3501336246541EAE
:400BC000A446002AD5D1F0BD70B504008A7E134B1B181D7E012A04D12800FFF7C3FF050002E0002001F042F90C4B1B191D7663091F2214401E3AA240002D07D104339B00EE
:400C00000649CB1859689143596006E004339B000249CB1859680A435A6070BDA409002010B50B4C7C220021200002F0B6FE094B238080231B016380074BA3800223A3779E
:400C4000200020303622054902F09EFE10BDC046A4090020448CFFFF70170000EC3F000002280DD84301084AD31850331B888B4208D9064B1818037E01208840184002E027
:400C8000002000E000207047EC3F0000A40900200023024AD380024A13607047A409002004050020FF231940062902D08318002119715300195AC3185980821800231372B9
:400CC0007047C04670B506000D00012305E0220029003000FFF7E6FF23005C1E002BF6D170BDC04610B54001054B1B188A00511848009A6894466044997EFFF7E3FF10BDDE
:400D00002440000070B505004301064AD3181B8B04E021002800FFF7E5FF23005C1E002BF7D170BD2440000010B5032303E02000FFF7E8FF23005C1E002BF8D110BDC046A9
:400D4000F0B501230EE0FF231340062B09D065006F5A2E1973001F526F5AC3185F806D5A9D8023005C1E002BEDD1F0BDF8B54F464646C0B405004301174AD3185A689146DA
:400D80001B8B21E06A01144B9B18A200121957009A6894466744DE683000610009198A00D969884690449A7E062A03D063001B19580030183900FFF7C3FF4B46198A3888C6
:400DC000424601F0E1FD23005C1E002BDAD10CBC90469946F8BDC0462440000010B5032303E02000FFF7C2FF23005C1E002BF8D110BDC04610B5FFF7F1FF10BDF0B5012442
:400E000020E0FF241440062C1BD05C00665AE7187D002D5A7619E7187D0045196F88BC466644AF88F619B6086746AF80E7187F003F5A6F80655AAC46E7187D0067462F52B2
:400E40000E531C00631E002CDBD1F0BD10B5FFF7D5FF10BD9840504380235B009A1A51434018000A7047C046F0B5474680B482B007000E00019201233EE06300985BF318E0
:400E80005988884205D3431A321900251572012201E00B1A0022002A11D17D79AB420ED933191B7A3A7A934205D3220001993000FFF7F8FE1FE03219013313721BE03D796C
:400EC000AB4204D97D79AB4215D2002A13D1FF23019A1340062B0ED00902331998461B79194308230A22FFF7B5FF020A6300F3185A804346187123005C1E002BBDD100202F
:400F000002B004BC9046F0BD054803680F2293431900044B1B7813400B4303607047C04600FF284062F2FF0F10B5FFF7EDFF10BD40230B737047C04610B5044A1168044B8B
:400F40000B40136000F066FB10BDC04600040240FFF0FFFF024BDB68802018407047C046A409002010B50E4BDB68DB030DD402280DD8430904339B00094A9B581F22024034
:400F8000D340DB0705D4012404E0112402E0012400E00024002C01D100F04EFB200010BDA409002010B5084BDB68DB0307D4074B1B78012B05D100F0C3FA002003E011204D
:400FC00001E00120404210BDA40900200805002010B50F4BDB681B0618D400240120404211E02000FFF7BEFF00280BD1012C03D80122084B5A7002E00022064B5A70FFF74B
:40100000D1FF04E00134022CEBD900E0112010BDA40900200805002010B504000C4B1B78834214D0012B01D1FFF786FF012C05D100F0ACF90122064B1A7008E0022C06D0A6
:40104000042C04D0032C02D00022014B1A7010BD0805002030B500200D4B16E019680A681C69A2430A605C6822689D7E0721A9408A4311000622AA400A43226099680A68B3
:401080005C69A2430A601C3301300228E6D930BD8440000010B51B4A93780133DBB293709078C0B2FFF75EFF041E09D1154B9B78022B02D10022134B5A70FFF773FF1EE01D
:4010C000104B9B78022B11D10F4B1A8901321A81DA6880218A43DA60DA681202120ADA60DA6804061443DC60002408E0064AD3681B021B0AD360D16803060B43D360002C38
:40110000C9D110BD08050020A4090020074A084B1A6001380002074B1860054B1B68002BFBDB054A024B1A607047C04640000040000001400003014040FF0080074A084B1C
:401140001A6001380002074B1860054B1B68002BFBDB054A024B1A607047C04641000040000001400403014041FF008070B58CB0FA239B0002AA1380C833538093803F4BBC
:4011800093810025002640E06B013D4AD3185C680C2323800023237302AB9889394902F03BFB60815521280000F014FB23000A330693354B1B7802AA1376344B1888FA2310
:4011C0009B005843324902F027FB02ABD881180001F0B2FA2F4B984203D9062601E05B00638102AB998963892B4A5A439142F6D8002BF4D0294A927F5B00DBB29A4200D37B
:401200006281AA0009ABD0500135022DBCD900241EE063011A4AD3185D685521200000F0D9FA06432B000A330693A20009ABD35801930493144B1B7802AA1376EB89D3807C
:401240002B0010330793100001F0B0FA28800134022CDED900240CE06301094AD31859682000FFF765FE5521200000F0B3FA06430134022CF0D930000CB070BDC05D00002F
:4012800024400000DC050000680300206A030020FF0F0000870D010038310000A409002010B5002407E06301044AD31859682000FFF73EFE0134022CF5D910BD2440000016
:4012C00010B5FFF731FEFFF7EBFFFFF7C3FE0120FFF7A2FE002010BD70B5002512E06B010A4A9E58002406E0E3001B1B9800301800F070F901346B01044AD3181B7E9C422A
:40130000F2D30135022DEAD970BDC04624400000054A13689B0A9B0213601368802189000B4313607047C0460800284070B50E001500038801249C40013CA3001B195800D7
:40134000642102F069FA013083199C4200D22300B04201D8301A00E00020A84203D8AB4203D2062002E0062000E0002070BDC04610B5054AC02314689C43204310600800C9
:40138000FFF7DCFE10BDC0466003002010B5FFF7A3FFFFF7BDFF074A1168074B0B40C021C9000B431360054B1B68054A1343054A136010BD00040240FFF0FFFF6003002069
:4013C0002008E8810400284010B50930040001F0A4F8064A1368FF218B4305490978615C0B43136001F09DF810BDC04608002840D840000010B5094B1B785B01084AD31835
:401400005B685989187B431FDBB2012B02D8490800D10131FFF7ACFF10BDC0460A05002024400000028801239340013B1B04014A536070476003002070B501F06EF8040090
:401440001E4B1B681E4A13431E4A13601E4B987FFFF75CFE1D4A1E4B1A601D4B1B68002BFBDB1C4A1A4B1A601B4E3568572001F04BF81A4B2B401A4A13433360E1231B02AD
:4014800000E0013B174A1268120701D4002BF8D1114B1D60094D144B2A681343094A1360122000F0D9FCE72001F02EF86A680F4B1A60200001F035F870BDC0466003002068
:4014C0002008E88104002840A4090020410000400000014041FF00800800284000E8FFBFF0060040100028402018E8810C00284010B5044AD36804490B43D360FFF79CFF1A
:4015000010BDC046A40900208000010070B50400857E067E01F001F823681B680F22B24093431A000423B3401343666832680721A9408A4332602268136000F0F2FF70BD7C
:4015400070B5154E3378154D5B01EB185868144C0023237033785B01EB1899682378DBB29A00D3185A008A180E4B1A60FFF72CFF33785B0158592278D2B2D3009A1A930009
:40158000C018094B1860FFF7C1FF084800F056FBFFF7AEFF70BDC0460A050020244000000B050020240A0020200A00202D26000010B54001054BC058CB00591A8B00C018AD
:4015C000034B1860FFF7A2FF10BDC04624400000200A002070B50400007EA57E21680B680F22824093430B6000F097FF61680B680722AA4093431A000623AB4013430B6079
:4016000000F08FFFA1680B68607E0122824093430B6070BD10B5064B1B78012B06D1054B1868FFF7D7FF0022014B1A7010BDC0460C050020200A002070B5104E4301F3181F
:401640005D68C0B20E4C20700120FFF7E5FCFFF7E1FF23785B019A590A4B1A600A4BDA687F218A43DA602178DA680A43DA602800FFF7D8FEFFF7BEFE70BDC04624400000E5
:401680000A050020200A0020A409002070B54301134AD3185D68C9B2124C217099682378DBB29A00D3185A008A180F4B1A60FFF7C3FF2800FFF788FE2378DBB20B49DA00D4
:4016C000D31A98000B689C4660440860FFF71EFF0122074B1A70074800F0B0FA70BDC046244000000B050020240A0020200A00200C050020E9250000F0B5474680B482B0D3
:4017000007000E0090462B4A13785B012A49CB185B680193002333701078C0B2274B1978C9B2FFF7B3FF002480256D00BC4202D23378AB4333706D0833782B4333700198C1
:40174000FFF742FEFFF7D4FEE1231B0200E0013B1B4AD268120601D5002BF8D1194B1B681C88002DE2D1134B1B785B01124A9858124B1A78D2B2D3009A1A9300C018124BE7
:401780001860FFF727FF0022104B1A70220039000198FFF7CBFD43461A7833789A4204D2424613700A4A1372548102B004BC9046F0BDC0460A050020244000000B050020ED
:4017C000A4090020240A0020200A00200C05002060030020F0B585B0070043011D4AD3185D68012603AB1E702B883000984001384843642102F010F80190FAB2164B1A700B
:40180000164800F01BFA2C000934154B1E725E810022144B1A7000260AE003AA21000198FFF76AFF06430F4A13780133DBB213707B01084AD318DA7E0A4B1B78DBB29A4259
:40184000EBD803AB1B786B720022064B1A70300005B0F0BD244000000A050020E9250000600300200B05002004490A68D2B208239A43C00018401043086070470004044087
:40188000024B1868C0080123184070470404044004490A68D2B210239A430001184010430860704700040440024B186800090123184070470404044004490A68D2B22023D3
:4018C0009A434001184010430860704700040440024B186840090123184070470404044010B500F01AFE044A136801218B43136000F017FE10BDC046000020400004000CE2
:40190000014B18607047C046080120400004000C014B18607047C046140120400004000C014B18607047C0460C01204070B504000D0000F0F2FDAC40024B1C6000F0F1FD11
:4019400070BDC0460800204010B500F0E6FD064A116801230B43136000F0E3FD18210120FFF7E4FF10BDC04600002040014B18607047C0463801204010B50E4C8023DB0495
:401980002360236823600020FFF7B8FF236823600C22094B1A600120FFF7E8FF3122074B1A60074C2000FFF7B1FF2000FFF7B6FF10BDC0460001204024012040280120407C
:4019C000FFFF000010B5064B1B78002B04D1FFF7D3FF0122024B1A70FFF7B6FF10BDC0460D050020044A1368DBB201218B430840184310607047C04600020440024B1B68A2
:401A0000012018407047C0460402044004490A68D2B202239A434000184010430860704700020440024B186840080123184070470402044004490A68D2B204239A43800038
:401A4000184010430860704700020440024B186880080123184070470402044004490A68D2B208239A43C000184010430860704700020440024B1868C008012318407047A1
:401A80000402044004490A68D2B210239A430001184010430860704700020440024B186800090123184070470402044004490A68D2B220239A4340011840104308607047B7
:401AC00000020440024B186840090123184070470402044004490A68D2B240239A438001184010430860704700020440024B186880090123184070470402044004490A6867
:401B0000D2B210239A430001184010430860704700030440024B186800090123184070470403044004490A68D2B220239A434001184010430860704700030440024B186829
:401B400040090123184070470403044004490A68D2B208239A43C000184010430860704700000440024B1868C0080123184070470400044004490A68D2B204239A438000AE
:401B8000184010430860704700000440024B186880080123184070470400044004490A68D2B202239A434000184010430860704700000440024B186840080123184070476C
:401BC00004000440044A1368DBB201218B430840184310607047C04600000440024B1B68012018407047C046040004408823014AD05070470000002010B5040000F08DFCC6
:401C0000044A1168044B0B40A4051C43146000F088FC10BD10E400E0FFFF3FFF8022D202014B1A607047C04600E100E08022D202014B1A607047C04680E100E010B50400B9
:401C4000FFF7F4FF2000FFF7D1FF0320FFF7D4FFFFF7E4FF10BDC04600230AE00D4A12683F210A400C49C95C8A4201D1033303E001332D2BF2D9032308490868084A024072
:401C80000A60084A944663441B78DBB2064A13607047C0462CFF0B40DC40000000002240FFFFFFBF4DF3FF0F28FF0B40034B18688023DB05184000D0012070470000224024
:401CC00030B52D4B1A783F231340042B01D9012000E0002000230AE0284A12683F210A402749C95C8A4201D1033303E001332D2BF2D9032323490A680124A2430A60224AEC
:401D0000126822490A6000280FD021490D681F4C65601F24A2431F4C247822431A4C22601D4A1278D2B20A6005E01F218A4317390A4315490A60302B0BD1002803D0174BF8
:401D40001B78DBB202E0164B1B78DBB2154A13600CE0182B0AD1002803D0134B1B78DBB202E0124B1B78DBB20E4A1360104A116802230B43136030BD00F3FF0F2CFF0B4044
:401D8000DC40000050000C4034FF0B401005002020FF0B40C0F1FF0FC1F1FF0FC3F1FF0F3FF3FF0F28FF0B40C2F1FF0F3EF3FF0F24002C4030B51A4B1A783F231340042B0B
:401DC00001D9012000E0002000230AE0154A12683F210A401449C95C8A4201D1033303E001332D2BF2D9032310490A680224A2430A600F4C21681F2291430E4D2D682A400F
:401E00000A432260002803D00A4A51680A4A11600A4A944663441B78DBB2094A136030BD00F3FF0F2CFF0B40DC40000024002C4034FF0B401005002020FF0B404DF3FF0FD0
:401E400028FF0B40034B1B680220184000D001207047C04624002C401F2318401E3B8340014A13607047C04600E100E001BE704770B504000D000F2802D90020FFF7F6FFAC
:401E8000A40080239B059C4664442068256070BD70B504000D001F2802D90020FFF7E6FF1034A40080239B059C4664442068256070BDC04610B5040006E0084B586800F07D
:401EC00023FB074B9C46644480231B029C42F4D8024B9868604300F017FB10BD6C0300200080FFFF70B582B000F004FA002862D000F013FB0500314A116801230B43136037
:401F000000230AE02E4A12683F210A402D49C95C8A4201D1033303E001332D2BF2D903230021294A1160294A1268D20606D1274802681F318A4313390A430260244C21689E
:401F4000244A1140244A5A438023DB019C466244D20B013A5205520D0B001343A0225203134323601D4B1B680193302000F08AFB1B4A13688021C9050B4313602668194B2B
:401F80001E40002407E00120FFF794FF1034A30533430F4A1360EE2CF5D90120FFF78AFFFF239B051E430A4B1E60019A0B4B1A60280000F0B6FA02B070BDC04650000C40AE
:401FC0002CFF0B40DC40000028FF0B4034FF0B400800224000F800C040420F003000104000002240FFFF3FC010B5034B1B7B584300F08AFA10BDC0466C030020F0B55F4669
:4020000056464D464446F0B483B0040000F085FA0190FFF74BFE002804D0FFF71DFE01239A4601E000239A46FFF70CFF002808D0182C01D0302C07D1FFF7BCFE01239B46D9
:4020400004E000239B4601E000239B46E61E2D2E74D8464B1B78DBB29C4208D8444B1B78DBB29946434B1B78DBB2984631E0424B1B78DBB29C4208D8404B1B78DBB2994659
:402080003F4B1B78DBB2984623E03E4B1B78DBB29C4208D83C4B1B78DBB299463B4B1B78DBB2984615E03A4B1B78DBB29C4208D8384B1B78DBB29946374B1B78DBB29846CA
:4020C00007E0364B1B78DBB29946354B1B78DBB29846344B9F5D2F2F09D92A2C07D91922314B1A60052000F00FFA192503E02E4B1D683F231D40BD4206D92A4B9A5D2A4B1E
:402100001A60052000F000FA254B9C4664442378DBB2264A1360264B4A461A60254B42461A600520FFF760FFBD420AD21D4B9A5D1D4B1A60052000F0E7F902E00020FFF7A1
:4021400095FE5346012B01D1FFF7CCFE5B46012B01D1FFF7B5FD019800F0E3F903B03CBC90469946A246AB46F0BDC04640F3FF0F41F3FF0F42F3FF0F43F3FF0F44F3FF0F8E
:4021800045F3FF0F46F3FF0F47F3FF0F48F3FF0F49F3FF0F4AF3FF0F4BF3FF0F4CF3FF0F4DF3FF0FDC4000002CFF0B4028FF0B401CFF0B4020FF0B40024A116802230B4379
:4021C0001360704710E000E010B5FFF7F5FF034A116801230B43136010BDC04610E000E0024A136802218B431360704710E000E00002000A014B18607047C04614E000E0D5
:40220000012805D1054A116804230B43136004E0024A136804218B431360704710E000E0024B1868000C01231840704710E000E010B5FFF7F5FF01280CD108E0A300064AEB
:40224000D3189B68002B00D09847013400E00024042CF3D910BDC046100500200022014B1A60704718E000E010B5002305E09A000C498A18002191600133042BF7D90A49EC
:402280000F20FFF7F5FD0120FFF7BAFF074B1869FA21890001F0C0FAFFF7AAFFFFF7DEFF10BDC04610050020312200006C03002010B5064BDB69002B04D1FFF7D5FF012272
:4022C000024BDA61FFF780FF10BDC046100500208000024B1B1898689960704710050020034B1868C0231B02184000D00120704700010B40034B1B68002B01DA012000E002
:40230000002070470000224010B500F006F9044A1368C02109020B43136000F002F910BD00010B4010B500F0F8F808490A68084B1A408024E40122430A600A681340802262
:40234000120213430B6000F0ECF810BD00010B40FF3FFFFF10B50400022802D90020FFF785FD044B1868E4000134E0400123184010BDC04610020B4010B504000C4A1368AB
:4023800003431360C30704D50020FFF7E3FF0028FAD0E30504D50120FFF7DCFF0028FAD0E30304D50220FFF7D5FF0028FAD010BD10020B4010B50400FFF792FF002818D10A
:4023C0000C4A1368A3431360E30704D50020FFF7C1FF0028FAD1E30504D50120FFF7BAFF0028FAD1E30304D50220FFF7B3FF0028FAD110BD10020B4070B5050000F08DF85E
:402400000400FFF76DFF002803D0FFF78BFF012100E0002108482840084A1568084B2B40184310601368012901D1FFF76DFF200000F077F870BDC0460404040010020B4094
:40244000FBFBFBFF054A1168054B184008431060024B1A68024B1A42FAD1704710020B400808080010B5244B1B685B0715D5234B5B685B070ED5224B596A042001401F4C59
:4024800062688A4362605A6A82435A629B69002B00D098470420FFF7AFFF174B1B685B0518D5164B5B685B0510D5154B596A8022D2001140114842688A434260596A114AC5
:4024C0000A405A62DB69002B00D098478020C000FFF792FF084B1B685B030CD5074B5B685B0304D5064B1B6A002B00D098478020C002FFF781FF10BD10020B40800300201B
:4025000030050020FFFBFFFF0230800803D00138FDD1C046C046C0467047EFF3108072B6704780F310887047044B1A68044B1B78044909685B00D1527047C046240A0020E4
:40254000D84000000C00284010B5204B1B785B011F4AD3181A7E013A1E4B1B78DBB29A421BD91C4A13780133DBB21370174803785B011749CB189C681378DBB29900CB18EA
:4025800059006118144B19600078C0B21178C9B2FFF70EF8FEF750FF16E000220D4B1A700E4AD1680E4B0B40D3600E4B1B78012B02D1FEF76FFD07E0084BDA6880218A43AB
:4025C000DA601A8901321A8110BDC0460A050020244000000B050020240A0020A4090020FFFFFEFF0905002010B50122094B1A60FFF79AFF084B1B68084A1343084A1360CE
:40260000084B1A8901321A81D968074A0A40DA6010BDC04614002840600300202008E88104002840A40900207FFFFEFF10B50E4B1B785B010D4A9C580D4B1A78D2B2D10012
:402640008A1A9300E41801220A4B1A60FFF76CFF094B1B68094A1343094A13602000FEF7B9FFFFF771FF10BD0A050020244000000B05002014002840600300202008E8813B
:402680000400284070B50400FFF747FF0500102C05D8104A136803218B43136016E0202C07D80C490B6803229343023A13430B600CE0302C07D807490B6803229343013AF0
:4026C00013430B6002E00020FFF7D0FB2800FFF728FF70BD3000104090B585B000AF78607B689B881A007B68DB895343FA2292005A4314007B689A897B681B691B881900DE
:40270000100001F089F803009BB21900200001F083F803001A007B681B7E5A437B685B881900100001F078F80300FB60FB681800BD4605B090BDC04680B586B000AF7860C6
:4027400001233B617B681800FFF7C6FF0300FB607B681B881A00FB685A43FA239900100001F05AF803007B617B689B891A007B6953430D49180001F04FF803007B6105E0F8
:402780007B695B087B613B695B003B617B69002BF6D17B681B693A6992B21A80FB681800BD4606B080BDC04600E1F50590B589B000AF786001237B611F23FB1810221A7035
:4027C0007B681B7E1A007B689B8853433B617B689A897B681B691B881900100001F01CF803009BB2FB607B685B881A0013001B049B1A3969180001F00FF803001A00FB6829
:402800005343BB61BB692249180001F005F803001A007B68DB8853430A21180000F0FCFF0300BB617B689B681A4A934211D902237B610EE01F23FB181F22BA181278013AE6
:402840001A70BB695B08BB611F23FB181B78062B06D97B6964225A43BB699A42EAD300E0C0467B685C69BA6913009B009B181A01D31A6421180000F0CFFF03009BB2238007
:402880001F23FB181B781800BD4609B090BDC046A0860100A761000080B586B000AFF860B9603B60BB1D1A801223FB18BA1D12881A803B68002B04D11623FB1800221A8044
:4028C00004E01623FB18BA6812881A80FB681B889B009BB21222BA1812889A4206D91423FB181222BA1812881A8005E0FB681A881423FB1892001A801423FA181623FB1890
:4029000012881B889A4205D91623FB181422BA1812881A80BB681622BA1812881A801623FB181B885B089BB2FF2B06D9BB68FF229A70BB68FF22DA700FE01623FB181B8855
:402940005B089BB2DAB2BB689A701623FB181B885B089BB2DAB2BB68DA701623FB181B88DB089BB2FF2B03D9BB68FF221A7107E01623FB181B88DB089BB2DAB2BB681A7122
:40298000C046BD4606B080BD80B582B000AF3A60BB1D021C1A803B1D0A1C1A803B1D1B889B089AB23B681A803B1D1B88DB089AB23B685A803B68BA1D12889A803B68BA1D4D
:4029C0001288DA803B68BA1D12881A813B680F229A723B680022DA72C046BD4602B080BD80B584B000AF3A60BB1D021C1A803B1D0A1C1A80BB1D1B883A6892889B1AFB60AA
:402A00003B68BA1D12889A803B689B7ADB18DAB23B689A72FB68002B08DA3B689B7A0133DAB23B689A72FB685B42FB603B689B7A0F221340DAB23B689A723B685B881A0079
:402A4000FB689A420AD93B685B88012B0CD93B685B88013B9AB23B685A8005E03B685B8801339AB23B685A803B689B7A0F2B09D03B689B7A002B05D03B685B889A00FB68A4
:402A80009A420BD23B68BA1D1288DA803B68BA1D12881A813B680022DA7247E03B68DB88BA1D12889A4204D23B68BA1D1288DA8009E03B681B89BA1D12889A4203D93B6875
:402AC000BA1D12881A813B68DB7A092B06D83B68DB7A0133DAB23B68DA7227E03B6819893B68DA880A23FB188A1A1A803B685B880A22BA1812889A420ED23B685A883B1D93
:402B00001B889B089BB29A420CD93B685B88013B9AB23B685A8005E03B685B8801339AB23B685A803B685A883B681A80C046BD4604B080BD70B506000D0082B0FDF7BCFB7D
:402B4000054C636801939847236801939847034B5E805D60FEE7C046803F0000280A0020F0B54D465F4656464446F0B483B09A460CAB1F780DAB1B780D0090469946FF2AA5
:402B800049D0434601AEB370324B30701C687570F770002C0BD04423E35C4422AB4203D10DE0A35CAB420AD06468002CF9D1002003B03CBC90469946A246AB46F0BD2369D9
:402BC000002B23D0FDF778FB234B9B465A469B88D2889B1A3A1D934236D34B46002B20D14B46F370002F29D104223100584600F08BFAA38CE28C01339BB2A384111C9A4278
:402C000000D2191CE184FDF749FBD0E74346FF2BD8D0FF20CCE78842FBD1002FB1D0FF20C6E704223100584600F04EFA002FE0D0BAB25146584600F047FADAE7BAB2514658
:402C4000584600F061FACFE74346290419430348FFF770FF580500205403002037020000C36870B504000D00002B0BD0FDF724FB0648A5602100183000F094FAFDF70EFB15
:402C8000002070BD01006120FFF754FF5805002010B50400FDF710FB00230548A3602100183000F0A5FAFDF7F9FA002010BDC0465805002070B505000E00FDF7FDFA6C7BEB
:402CC000FF2C0AD0064829002430AE6000F06AFA0024FDF7E3FA200070BDFDF7DFFAFAE758050020F0B5304D83B02E002B6BE96801332B630C36002905D10EE0300000F0BA
:402D000077FA211E09D08B684C68002BF6D0013B8B60002BF2D0211EF5D12F00AC691837002C0CD115E0E368002B31D0206998476668A06000282CD03400002C09D0A368B3
:402D4000002BF0D0013BA360002BECD06468002CF5D16C6A243500262F00002C0CD115E0A27B617B207B002301960096FFF7F8FE002814D02C1E09D0A3686568002BEFD041
:402D8000013BA360002BEBD02C1EF5D103B0F0BD66682100380000F02BFA3400CDE72100380000F025FAE5E758050020452370B5C45C0500002C02D0FF24200070BDFDF795
:402DC0007BFA4423EA5CFF2A09D02900074800F0E9F9FDF763FAAB6828009847EDE704490A78013AD2B20A70EA54EEE7580500208803002030B583B0002906D0826AFF23BE
:402E0000002A04D0180003B030BDFF23FAE744243C25045D44550135445501354355C03BC2543E3B816282852100019300920023FF322000FFF794FE0023E3E7FF2300298A
:402E400002D0826A914201D018007047FE3B83850023F9E7F0B583B01F0004000D001600FDF72CFA0300FF20012B09D0054B2A00587801230097019321003300FFF770FE2D
:402E800003B0F0BD300A002009490A4810B50431343000F0DBF9084C23689847A3689847064800F0EBF8064B186800F0A9FB10BD8803002058050020803F00005403002039
:402EC000A0050020F0B55F4656464D464446F0B4474B83B09A465B68442700939847454B98461B6800939847434B444D9946444B444E9B4602E0F388002B0BD16C682B68F3
:402F00009C43F8D153461B68009398472C60F388002BF3D0FDF7D0F904224946300000F0B3F84B46DA78002A3DD1FDF7B7F95B461C68002CE2D04B465A78E35D934205D01A
:402F40006468002CDAD0E35D9342F9D14B461B7893422ED02369002B21D043469B68009398475946086BC8634146496801918847236920009C46E047009A90475B461A6B11
:402F8000DB6B0198D31A5A46D36380475B46228C9B8F9A4203D223844B469B786384A38C013BA384AAE792B21749300000F06CF8BBE74B469B78FF2BCCD1A36A002BEED0FE
:402FC000210020002C319847002801D1A062E6E7012805D0010020003030FFF76BFEDEE7E05D00230022FF21FFF734FFD7E7C046803F00008C3F0000300A0020B0040020A1
:403000005805002054030020340A0020F8B51E0006AB8C1A1D88A4B20700AC420BD2036830009918220000F0AFFC30192A1B396800F0AAFCF8BD0168300089182A0000F078
:40304000A3FCF7E7F8B51E0006AB891A1D888CB20700AC420BD2036831009818220000F093FC38682A1B311900F08EFCF8BD0068310080182A0000F087FCF7E70023C380A2
:40308000438103817047C04630B51500040083B00B00028981880095FFF7B8FFE3889D420DD25B1BE3802389A288EB189BB22381934201D39B1A2381280003B030BD002340
:4030C000E38063892381F7E730B51500040083B00B00428981880095FFF7B4FF6389A288EB189BB26381934201D39B1A6381E388EB189BB29A4205D26389E280238128009D
:4031000003B030BDE380FAE730B51500028983B00B00954211D98188C4885218521B2C1992B2A4B20281A14210D2C18042810095FFF788FF280003B030BDC488521B2C19F8
:40314000818892B2A4B20281A142EED3C480EEE710B50A0000E01A001368002BFBD10468A24214D00A00002C01D113E01A001368002BFBD194420AD023684C600B60236899
:40318000002B05D05960836821600133836010BD0160F8E783680160013341600C604C608360F4E770B50A0000E01A001368002BFBD10568AA4215D044680A00002C01D142
:4031C00013E01A001368002BFBD195420AD063680C604B606368002B05D01960836861600133836070BD4160F8E7FFF7B1FFF9E70A0000E01A001368002BFBD103689A42C6
:4032000000D070470B684A68002B0BD05A604A68002A09D0136000230B604B608368013B8360EEE70260F3E74360F4E770B5040000680D00002803D000F0E8FA854203D023
:403240002900200000F0CAFA70BDC0460B6810B5002B00D010BDFFF7E9FFFBE77047C046F0B5474600228B5E80B40C00002B07D0572B05D0002300200B8004BC9046F0BDBA
:40328000C6698569306800F09BF92B68070043401FD003422FD0337B6B7200236B60337B9846002B12D073689C461B68834238D00822002306E060461100805808318742A2
:4032C00031D00A000133DBB24345F4D12F60B0680EE06B7A327BB0689A4209D06A68DB0012186A607268944663441979002927D157232380C1E76B7A327B9342E6D0716857
:40330000DB008C4663445979002903D100236A726B60DBE72A1D287A0423FFF79BFD327BF4E7002200236B7273689C46624411790029CBD02A1D287A0423FFF78BFDC5E7AB
:403340002A1D287A0423FFF785FDB068D0E7C04670B50400C56986690B490C48FFF776FF2369002163610A4B2868236100F008F9286800F025F9074930602000FFF73AFD01
:4033800001224523E25470BD940300208C0500205D3200006132000010B504000449FFF74DFD23694522636100232361A35410BD61320000F8B585682B7E002B11D0002417
:4033C00000260127002120006B699847002802D03B00A3401E432B7E0134A342F2DC3000F8BD0026FBE7C0460300002210B59C68DB6840681A70FFF74BFC63689847002024
:4034000010BDC04670B585684668094904000948FFF71CFF2B6898472B699847697E3000FFF71EFC0122E36800201A7070BDC0469C0300208C05002010B58468A3689847DF
:40344000002803D1E368984723699847607E10BD0022C36800201A707047C04610B583681A7A1B68002A03D198474342584110BD9847FCE710B58368187A002902D1424249
:403480005041C0B25B689847002010BD10B5040004490548FFF7DAFE0122E36800201A7010BDC046A40300208C050020002110B5C268836811715B689847002010BDC046D4
:4034C000436898687047C046436858687047C04610B5040004490548FFF7B8FE0122E36800201A7110BDC046AC0300208C050020436870B504000D00002B02D08368002BCD
:4035000000D170BD0B6898476168206800F084F9AB68984764212368A06858436368594300F07AF9EB689847EBE7C04610B5FF23642901D9180010BD8268436899601368C8
:40354000002904D19B685B6898470023F2E799685868FFF7CDFF0023ECE7C0468368426810B51B685160002904D19B685B689847002010BD99685868FFF7BAFFF8E7C046BA
:4035800010B5031E09D00268002A06D01268FF20002A01D01800904710BDFF20FCE7C04610B5031E09D00268002A06D05268FF20002A01D01800904710BDFF20FCE7C046C9
:4035C00010B5031E09D00268002A06D09268FF20002A01D01800904710BDFF20FCE7C04610B5031E09D00268002A06D0D268FF20002A01D01800904710BDFF20FCE7C04689
:4036000010B5031E09D00268002A06D01268FF20002A01D01800904710BDFF20FCE7C046F8B587683E79013E14D300207400A4193B68A4001B191A7A904005001868FFF7E5
:40364000BFFF3B681A1952680C3C10402843013EF0D2F8BD0020FCE7F8B587680E003B79002B20D03B68002505E0127A0135D6403A79AA4217DD6C006419A4001859FFF7BB
:403680009FFF3B6870401A1951680142EDD031401068FFF7A5FF3B6801351A19127AD6403A79AA42E7DC0020F8BDC046002270B5C36885681A702B790024002B0BD06300A5
:4036C0001B192A689B009858FFF76AFF01342B79E4B2A342F3D8002070BDC04670B5856806000D490D48FFF7B1FD2B790024002B0CD063001B192A689B0098580021FFF7A7
:403700003FFF01342B79E4B2A342F2D80122F36800201A7070BDC046B40300208C0500200020704770B500254468C36820001D70FFF7AEFA6561A561002070BD70B544681D
:40374000866820000D00FFF7A3FA002D0BD029686561A561E069FFF743FFA3695968002906D1002070BD3168E069FFF739FFF8E72000FFF775FAF4E770B544688668050088
:403780000B490C48FFF762FD2000FFF781FA002300216361A361E069FFF7F2FE3168E069FFF71EFF0122EB6800201A7070BDC046BC0300208C05002010B54468A2691300D9
:4037C000D2680833A361013201D16369A3611968E069FFF705FFA369586810BD0368002B0CD01A68002A01D10EE01A001368002BFBD1436811600133436004E00B604368C7
:4038000001600133436070471A00F2E700E018000368002BFBD17047002243088B4274D303098B425FD3030A8B4244D3030B8B4228D3030C8B420DD3FF22090212BA030C7F
:403840008B4202D31212090265D0030B8B4219D300E0090AC30B8B4201D3CB03C01A5241830B8B4201D38B03C01A5241430B8B4201D34B03C01A5241030B8B4201D30B034D
:40388000C01A5241C30A8B4201D3CB02C01A5241830A8B4201D38B02C01A5241430A8B4201D34B02C01A5241030A8B4201D30B02C01A5241CDD2C3098B4201D3CB01C01A49
:4038C000524183098B4201D38B01C01A524143098B4201D34B01C01A524103098B4201D30B01C01A5241C3088B4201D3CB00C01A524183088B4201D38B00C01A5241430830
:403900008B4201D34B00C01A5241411A00D20146524110467047FFE701B5002000F006F802BDC0460029F7D076E770477047C046014B18687047C046240400200E4B70B59B
:4039400000251E000D4CE41AA410A54204D0AB00F35898470135F8E700F058FC084B00251E00084CE41AA410A54204D0AB00F35898470135F8E770BD1842000018420000EE
:403980001842000020420000002310B59A4203D0CC5CC4540133F9E710BD03008218934202D019700133FAE77047000000000000B8390000C839000070736F63342F706C14
:4039C0006174666F726D0000322E302E32000000003F0006005B004F0066006D007D0007007F006F063F0606065B064F0666066D067D0607067F066F0077007C0039000F6F
:403A00000058004C005E00790071003D006F007600740056003000100004000E00000038000E00000054003F005C007300670050006D0078003E0037001C00230000000064
:403A40000000006E00000677067C0639060F0658064C065E06790671063D066F067606740656063006100604060E06000638060E06000654063F065C067306670650066DF9
:403A80000678063E0637061C0623060006000600066E06000000000089030000FD020000090300000D030000020105060D0E0A09030004070C0F0B0845040000F1030000D4
:403AC00001040000FD030000B6040000C404000054050000540500005405000054050000D20400005405000054050000E0040000540500005405000054050000540500000B
:403B0000EE04000008050000220500003C050000A00F000096000000B80B0000C8000000A00F0000960000000000000000000000C00D0000960000006F0F0000C800000060
:403B40002D0800009600000000000000000000003F0C0000960000000000000000000000C00D000096000000000000000000000026050000FC0000000000000024000000EB
:403B800026050000FC000000000000002400000026050000FC0000000000000024000000000000002001000026050000FC0000000000000024000000E00600001C020000FF
:403BC0000000000024000000000000002001000000000000000000007041000000000000203E000088040020D041000000000000E43C000064040020983A0000C802002050
:403C0000D83C000060040020B83A00004C040020583C00004804002000000000000000000000000000000000683E000000000000000000000000000000000000A03E000006
:403C4000703F000000000000F0410000A8020020443C000044040020BC3C0000A03C0000843C0000683C00007041000000000000783C000050040020DD1B0000C51B0000C9
:403C8000000000007041000000000000943C000054040020B51B00009D1B0000000000007041000000000000B03C0000580400208D1B0000751B0000000000007041000081
:403CC00000000000CC3C00005C040020651B00004D1B000000000000E83B00005C3D0000403D0000EC3C000007000000D83B00000100000001000000043E00000100000094
:403D000001000000E83D00000100000001000000CC3D00000100000001000000B03D00000100000001000000943D00000100000001000000783D00000100000001000000D7
:403D40007041000000000000503D0000680400203D1B0000251B00000000000070410000000000006C3D00006C040020151B0000FD1A0000000000007041000000000000FF
:403D8000883D000070040020ED1A0000D51A0000010000007041000000000000A43D000074040020C51A0000AD1A0000010000007041000000000000C03D00007804002098
:403DC0009D1A0000851A0000010000007041000000000000DC3D00007C040020751A00005D1A0000010000007041000000000000F83D0000800400204D1A0000351A0000BB
:403E0000010000007041000000000000143E000084040020251A00000D1A000001000000FD190000E519000001000000D0410000000000003C3E00008C040020443E00009D
:403E400003000000A03E00000100000001000000843E00000100000001000000683E000001000000010000007041000000000000783E000090040020D1180000B91800001E
:403E8000000000007041000000000000943E000094040020A918000091180000000000007041000000000000B03E000098040020811800006918000000000000703F000039
:403EC000CC3E00003200000007000000040000000B0C0000020000000D1000000100000011140000060000001516000005000000191A00000300000017180000070000007D
:403F00001B1C0000A441000034030020143F00009C040020343F00003403002094410000340300202C3F0000A0040020343F000034030020B441000034030020443F00003D
:403F4000A4040020C5190000E11800000D1900001D190000A9090000DD090000550F0000ED090000D10F0000610C0000030200004841000040030020543F0000AC040020B3
:403F8000A1070000AD070000B90700008D070000B9210000E121000000300F40000800400F400008B80ABE05D804DF0118A0B4505F08D6809F0813089F08C4105020D40418
:403FC00038049004B424CE02EC0A000004320F4001330F4001350F4002400F4001410F4003420F4002450F4005460F400C00640028280A031E2004000000840300000C003E
:40400000640028280A031E2004000000840300000C00640028280A031E200400000084030000000084400000C4090020FA090020CC0400200005002001280000010001014B
:40404000EC040020A0400000D6090020040A0020C4040020FC0400200128000001000101E0040020BC400000E80900200E0A0020BC040020F804002001280000010001017E
:40408000D404002000070240080704400007044004070440F00000000200000004010300000702400807044000070440040704400F0000000100000000000000000402404C
:4040C0000804044000040440040404400000000F400000001806120000000000030405060708090A0B0C0E0F101112131415161718191B1C1D1E1F2021222325262728294E
:404100002A2B2E2F3031323334350000144100002041000052436F53436F726500000000322E302E310000003041000038410000627574746F6E7300322E302E3000000032
:40414000584100003841000005340000E9330000B53300000000000070736F63342F63617073656E7365000080410000384100008D340000513400005D34000075340000CC
:4041800070736F63342F6770696F0000BC410000384100000000000000000000C93400005D3500000000000000000000C13400002D350000D1340000AD34000070736F6341
:4041C000342F70776D000000E041000038410000DD360000AD3600002136000059360000696F636F6D62000000420000384100007937000025370000213700003D37000086
:404200007061747465726E0043000000F8B5C046F8BC08BC9E4670476502000035090000F8B5C046F8BC08BC9E4670473D02000040420000C00000206803000010070000E9
:404240000000000000000000B039000000000000000000005133000099330000000000000000000028030020BC3E00000000000000000000000000000000000000000000C0
:404280000000000000000000FFFFFF0000000000FF000000000000000000000061050000C105000000000000000000005C020020403C0000000000000000000000000000DC
:4042C000000000000000000000000000000000000000FF0000000000000000000000000000000000D9060000150700000000000000000000240200202C3C00000000000016
:404300000000000000000000000000000000000000000000000000000101FF000000000001000000000000000000000005060000410600000000000000000000EC0100201C
:40434000183C0000000000000000000000000000000000000000000000000000000000000202FF0000000000020000000000000000000000000000000202000000000000E0
:4043800000000000000000000202010000000000000000000000000002020200000000000000000000000000000000000000000001010000000000000000000000000000F0
:4043C00001010100000000000000000000000000010102000000000000000000000000000000000000000000000000000000000000000000000000000000010000000000B5
:4044000000000000000000000000040000000000000000002C3E0000043F0000483C0000F83B0000083C0000000000000000000000000000B9370000483C0000000000005C
:40444000000000001C3F0000000000000000000000000000FFFF010000000000E00200200000000000000000A1030000D90300000000000000000000C8020020D83C000062
:4044800000000000000000000000000000000000000000000000000000000000FFFFFF0000000000FF00000000000000000000000007000040420F00000000003200000036
:4044C00000000000000000000000000039340000703F0000A405002000040000000000004008C0010000FF0F01000100010000000000C05D80BB000030000000006CDC02E7
:40450000F000000004040400FF000000000000000C410000000000002841000000000000404100000000000068410000000000008C41000000000000C841000000000000CA
:40454000E8410000000000000000000000000000000000000000000000000000000000000000000008420000000000000000000000000000000000000000000000000000C8
:40458000000000000000000000000000000000000000000000000000000000000000000000000000C403002000000000000000000000000000000000000000000000000014
:4045C00000000000000000000000000000000000000000000000000000000000000000000000000000000000000000000000000000000000000000000000000000000000BB
:40460000000000000000000000000000000000000000000000000000000000000000000000000000000000000000000000000000000000000000000000000000000000007A
:40464000000000000000000000000000000000000000000000000000000000000000000000000000000000000000000000000000000000000000000000000000000000003A
:4046800000000000000000000000000000000000000000000000000000000000000000000000000000000000000000000000000000000000000000000000000000000000FA
:020000040003F7
:0200000490303A
:02000000690D88
:0200000490402A
:4000000000000000000000000000000000000000000000000000000000000000000000000000000000000000000000000000000000000000000000000000000000000000C0
:400040000000000000000000000000000000000000000000000000000000000000000000000000000000000000000000000000000000000000000000000000000000000080
:0200000490501A
:0C0000000002100E11A0000110237AADC8
:0200000490600A
:0100000001FE
:00000001FF